{
  "contractName": "Land",
  "abi": [
    {
      "inputs": [],
      "stateMutability": "nonpayable",
      "type": "constructor"
    },
    {
      "inputs": [],
      "name": "history",
      "outputs": [
        {
          "internalType": "string",
          "name": "",
          "type": "string"
        }
      ],
      "stateMutability": "view",
      "type": "function",
      "constant": true
    },
    {
      "inputs": [],
      "name": "land_details",
      "outputs": [
        {
          "internalType": "string",
          "name": "",
          "type": "string"
        }
      ],
      "stateMutability": "view",
      "type": "function",
      "constant": true
    },
    {
      "inputs": [],
      "name": "purchase",
      "outputs": [
        {
          "internalType": "string",
          "name": "",
          "type": "string"
        }
      ],
      "stateMutability": "view",
      "type": "function",
      "constant": true
    },
    {
      "inputs": [],
      "name": "user_details",
      "outputs": [
        {
          "internalType": "string",
          "name": "",
          "type": "string"
        }
      ],
      "stateMutability": "view",
      "type": "function",
      "constant": true
    },
    {
      "inputs": [
        {
          "internalType": "string",
          "name": "ud",
          "type": "string"
        }
      ],
      "name": "setUserDetails",
      "outputs": [],
      "stateMutability": "nonpayable",
      "type": "function"
    },
    {
      "inputs": [],
      "name": "getUserDetails",
      "outputs": [
        {
          "internalType": "string",
          "name": "",
          "type": "string"
        }
      ],
      "stateMutability": "view",
      "type": "function",
      "constant": true
    },
    {
      "inputs": [
        {
          "internalType": "string",
          "name": "pd",
          "type": "string"
        }
      ],
      "name": "setLandDetails",
      "outputs": [],
      "stateMutability": "nonpayable",
      "type": "function"
    },
    {
      "inputs": [],
      "name": "getLandDetails",
      "outputs": [
        {
          "internalType": "string",
          "name": "",
          "type": "string"
        }
      ],
      "stateMutability": "view",
      "type": "function",
      "constant": true
    },
    {
      "inputs": [
        {
          "internalType": "string",
          "name": "p",
          "type": "string"
        }
      ],
      "name": "sethistory",
      "outputs": [],
      "stateMutability": "nonpayable",
      "type": "function"
    },
    {
      "inputs": [],
      "name": "gethistory",
      "outputs": [
        {
          "internalType": "string",
          "name": "",
          "type": "string"
        }
      ],
      "stateMutability": "view",
      "type": "function",
      "constant": true
    },
    {
      "inputs": [
        {
          "internalType": "string",
          "name": "pp",
          "type": "string"
        }
      ],
      "name": "setpurchase",
      "outputs": [],
      "stateMutability": "nonpayable",
      "type": "function"
    },
    {
      "inputs": [],
      "name": "getpurchase",
      "outputs": [
        {
          "internalType": "string",
          "name": "",
          "type": "string"
        }
      ],
      "stateMutability": "view",
      "type": "function",
      "constant": true
    }
  ],
  "bytecode": "0x608060405234801562000010575f80fd5b5060405180602001604052805f8152505f90816200002f9190620002fa565b5060405180602001604052805f815250600190816200004f9190620002fa565b5060405180602001604052805f815250600290816200006f9190620002fa565b5060405180602001604052805f815250600390816200008f9190620002fa565b50620003de565b5f81519050919050565b7f4e487b71000000000000000000000000000000000000000000000000000000005f52604160045260245ffd5b7f4e487b71000000000000000000000000000000000000000000000000000000005f52602260045260245ffd5b5f60028204905060018216806200011257607f821691505b602082108103620001285762000127620000cd565b5b50919050565b5f819050815f5260205f209050919050565b5f6020601f8301049050919050565b5f82821b905092915050565b5f600883026200018c7fffffffffffffffffffffffffffffffffffffffffffffffffffffffffffffffff826200014f565b6200019886836200014f565b95508019841693508086168417925050509392505050565b5f819050919050565b5f819050919050565b5f620001e2620001dc620001d684620001b0565b620001b9565b620001b0565b9050919050565b5f819050919050565b620001fd83620001c2565b620002156200020c82620001e9565b8484546200015b565b825550505050565b5f90565b6200022b6200021d565b62000238818484620001f2565b505050565b5b818110156200025f57620002535f8262000221565b6001810190506200023e565b5050565b601f821115620002ae5762000278816200012e565b620002838462000140565b8101602085101562000293578190505b620002ab620002a28562000140565b8301826200023d565b50505b505050565b5f82821c905092915050565b5f620002d05f1984600802620002b3565b1980831691505092915050565b5f620002ea8383620002bf565b9150826002028217905092915050565b620003058262000096565b67ffffffffffffffff811115620003215762000320620000a0565b5b6200032d8254620000fa565b6200033a82828562000263565b5f60209050601f83116001811462000370575f84156200035b578287015190505b620003678582620002dd565b865550620003d6565b601f19841662000380866200012e565b5f5b82811015620003a95784890151825560018201915060208501945060208101905062000382565b86831015620003c95784890151620003c5601f891682620002bf565b8355505b6001600288020188555050505b505050505050565b610c0580620003ec5f395ff3fe608060405234801561000f575f80fd5b50600436106100b2575f3560e01c8063b20b15f71161006f578063b20b15f714610168578063c822632f14610186578063ce8422b4146101a4578063d2b169f8146101c2578063e3fcf86e146101de578063ef3dfe62146101fa576100b2565b80634c07a317146100b657806364edfbf0146100d4578063861f805a146100f2578063942886be1461011057806398daac831461012e578063ac9e38441461014c575b5f80fd5b6100be610216565b6040516100cb9190610759565b60405180910390f35b6100dc6102a1565b6040516100e99190610759565b60405180910390f35b6100fa61032d565b6040516101079190610759565b60405180910390f35b6101186103b9565b6040516101259190610759565b60405180910390f35b610136610448565b6040516101439190610759565b60405180910390f35b610166600480360381019061016191906108b6565b6104d4565b005b6101706104e7565b60405161017d9190610759565b60405180910390f35b61018e610577565b60405161019b9190610759565b60405180910390f35b6101ac610607565b6040516101b99190610759565b60405180910390f35b6101dc60048036038101906101d791906108b6565b610697565b005b6101f860048036038101906101f391906108b6565b6106a9565b005b610214600480360381019061020f91906108b6565b6106bc565b005b5f80546102229061092a565b80601f016020809104026020016040519081016040528092919081815260200182805461024e9061092a565b80156102995780601f1061027057610100808354040283529160200191610299565b820191905f5260205f20905b81548152906001019060200180831161027c57829003601f168201915b505050505081565b600380546102ae9061092a565b80601f01602080910402602001604051908101604052809291908181526020018280546102da9061092a565b80156103255780601f106102fc57610100808354040283529160200191610325565b820191905f5260205f20905b81548152906001019060200180831161030857829003601f168201915b505050505081565b6001805461033a9061092a565b80601f01602080910402602001604051908101604052809291908181526020018280546103669061092a565b80156103b15780601f10610388576101008083540402835291602001916103b1565b820191905f5260205f20905b81548152906001019060200180831161039457829003601f168201915b505050505081565b60605f80546103c79061092a565b80601f01602080910402602001604051908101604052809291908181526020018280546103f39061092a565b801561043e5780601f106104155761010080835404028352916020019161043e565b820191905f5260205f20905b81548152906001019060200180831161042157829003601f168201915b5050505050905090565b600280546104559061092a565b80601f01602080910402602001604051908101604052809291908181526020018280546104819061092a565b80156104cc5780601f106104a3576101008083540402835291602001916104cc565b820191905f5260205f20905b8154815290600101906020018083116104af57829003601f168201915b505050505081565b80600390816104e39190610b00565b5050565b6060600280546104f69061092a565b80601f01602080910402602001604051908101604052809291908181526020018280546105229061092a565b801561056d5780601f106105445761010080835404028352916020019161056d565b820191905f5260205f20905b81548152906001019060200180831161055057829003601f168201915b5050505050905090565b6060600380546105869061092a565b80601f01602080910402602001604051908101604052809291908181526020018280546105b29061092a565b80156105fd5780601f106105d4576101008083540402835291602001916105fd565b820191905f5260205f20905b8154815290600101906020018083116105e057829003601f168201915b5050505050905090565b6060600180546106169061092a565b80601f01602080910402602001604051908101604052809291908181526020018280546106429061092a565b801561068d5780601f106106645761010080835404028352916020019161068d565b820191905f5260205f20905b81548152906001019060200180831161067057829003601f168201915b5050505050905090565b805f90816106a59190610b00565b5050565b80600190816106b89190610b00565b5050565b80600290816106cb9190610b00565b5050565b5f81519050919050565b5f82825260208201905092915050565b5f5b838110156107065780820151818401526020810190506106eb565b5f8484015250505050565b5f601f19601f8301169050919050565b5f61072b826106cf565b61073581856106d9565b93506107458185602086016106e9565b61074e81610711565b840191505092915050565b5f6020820190508181035f8301526107718184610721565b905092915050565b5f604051905090565b5f80fd5b5f80fd5b5f80fd5b5f80fd5b7f4e487b71000000000000000000000000000000000000000000000000000000005f52604160045260245ffd5b6107c882610711565b810181811067ffffffffffffffff821117156107e7576107e6610792565b5b80604052505050565b5f6107f9610779565b905061080582826107bf565b919050565b5f67ffffffffffffffff82111561082457610823610792565b5b61082d82610711565b9050602081019050919050565b828183375f83830152505050565b5f61085a6108558461080a565b6107f0565b9050828152602081018484840111156108765761087561078e565b5b61088184828561083a565b509392505050565b5f82601f83011261089d5761089c61078a565b5b81356108ad848260208601610848565b91505092915050565b5f602082840312156108cb576108ca610782565b5b5f82013567ffffffffffffffff8111156108e8576108e7610786565b5b6108f484828501610889565b91505092915050565b7f4e487b71000000000000000000000000000000000000000000000000000000005f52602260045260245ffd5b5f600282049050600182168061094157607f821691505b602082108103610954576109536108fd565b5b50919050565b5f819050815f5260205f209050919050565b5f6020601f8301049050919050565b5f82821b905092915050565b5f600883026109b67fffffffffffffffffffffffffffffffffffffffffffffffffffffffffffffffff8261097b565b6109c0868361097b565b95508019841693508086168417925050509392505050565b5f819050919050565b5f819050919050565b5f610a046109ff6109fa846109d8565b6109e1565b6109d8565b9050919050565b5f819050919050565b610a1d836109ea565b610a31610a2982610a0b565b848454610987565b825550505050565b5f90565b610a45610a39565b610a50818484610a14565b505050565b5b81811015610a7357610a685f82610a3d565b600181019050610a56565b5050565b601f821115610ab857610a898161095a565b610a928461096c565b81016020851015610aa1578190505b610ab5610aad8561096c565b830182610a55565b50505b505050565b5f82821c905092915050565b5f610ad85f1984600802610abd565b1980831691505092915050565b5f610af08383610ac9565b9150826002028217905092915050565b610b09826106cf565b67ffffffffffffffff811115610b2257610b21610792565b5b610b2c825461092a565b610b37828285610a77565b5f60209050601f831160018114610b68575f8415610b56578287015190505b610b608582610ae5565b865550610bc7565b601f198416610b768661095a565b5f5b82811015610b9d57848901518255600182019150602085019450602081019050610b78565b86831015610bba5784890151610bb6601f891682610ac9565b8355505b6001600288020188555050505b50505050505056fea2646970667358221220e6fb5d5db2d29fe3ac06cc3af3a865a623b93b8d5b5efb7fed42e6fc976a816d64736f6c63430008150033",
  "immutableReferences": {},
  "source": "// SPDX-License-Identifier: MIT\r\npragma solidity >= 0.4.0 <= 0.9.0;\r\n\r\ncontract Land {\r\n    string public user_details;\r\n    string public land_details;\r\n    string public history;\r\n    string public purchase;\r\n\r\n    function setUserDetails(string memory ud) public {\r\n        user_details = ud;\t\r\n    }\r\n\r\n    function getUserDetails() public view returns (string memory) {\r\n        return user_details;\r\n    }\r\n\r\n    function setLandDetails(string memory pd) public {\r\n        land_details = pd;\t\r\n    }\r\n\r\n    function getLandDetails() public view returns (string memory) {\r\n        return land_details;\r\n    }\r\n\r\n\r\n    function sethistory(string memory p) public {\r\n        history = p;\t\r\n    }\r\n\r\n    function gethistory() public view returns (string memory) {\r\n        return history;\r\n    }\r\n\r\n    function setpurchase(string memory pp) public {\r\n        purchase = pp;\t\r\n    }\r\n\r\n    function getpurchase() public view returns (string memory) {\r\n        return purchase;\r\n    }\r\n\r\n\r\n    constructor() public {\r\n    user_details = \"\";\r\n\tland_details = \"\";\r\n    history = \"\";\r\n    purchase= \"\";\r\n    }\r\n}",
  "sourcePath": "C:\\Users\\TruProjects\\Desktop\\Secure Land Registration Management via Ethereum Blockchain\\contracts\\Land.sol",
  "compiler": {
    "name": "solc",
    "version": "0.8.21+commit.d9974bed.Emscripten.clang"
  },
  "schemaVersion": "3.4.16",
  "updatedAt": "2023-12-06T05:58:57.005Z",
  "networkType": "ethereum",
  "devdoc": {
    "kind": "dev",
    "methods": {},
    "version": 1
  },
  "userdoc": {
    "kind": "user",
    "methods": {},
    "version": 1
  }
}